:020000040000FA
:100000000A128A11E62FFF1B0D2883137F1883170E
:100010000008840A0319FF0A080000308A00040857
:10002000840A8207003431343234333434340034B7
:100030007334693472343D34253464342C3473346D
:10004000683431343D34253464342C3473346D34A5
:1000500074343D3425346434003470346134733482
:10006000733477346F3472346434203470346C34C5
:10007000733420343A344434003474347234793470
:10008000203461346734613469346E34003462344E
:100090006C346F3463346B346534643400347734D7
:0E00A00065346C3463346F346D346534003471
:10084E0064008001840A0406031900340406282C6F
:10085E0001300A128A110C250A128A110830F4008E
:10086E00C930F300F30B392CF40B392C3E2C080055
:10087E003134323433344134343435343634423412
:10088E0037343834393443342A343034233444340E
:10089E00F030FF007F08831603138605F030FF004B
:1008AE007F0886048113FF30950083160317890194
:1008BE0008007E088A007F0882000A128A116024CE
:1008CE000A128A118000840A04087D060319003476
:1008DE00FF0A0319FE0A642C0A128A112F240A1227
:1008EE008A11F5013530F6008030F70000300A121B
:1008FE008A11BC240A128A113330FC00BB30FB0073
:10090E00DF30FA00FA0B892CFB0B892CFC0B892C9F
:10091E00902C0430831203138900A5010800AB2C20
:10092E007408FF00730884000A128A1103200A1249
:10093E008A110A128A1142250A128A110130F3070E
:10094E000318F40A0030F407740883120313FF002F
:10095E00730884000A128A1103200A128A11003ABF
:10096E00031DBA2CBB2C972C0800F800023078021D
:10097E000318C22CC32CCE2C75080F398038F90001
:10098E0079080A128A110C250A128A11D82C7508B8
:10099E000F39C038F90079080A128A110C250A128B
:1009AE008A117608F3007708F4000A128A11962449
:1009BE000A128A1108008316031388012730F400E7
:1009CE00F530F300F30BE92CF40BE92C02300A128C
:1009DE008A110C250A128A1128300A128A110C2546
:1009EE000A128A1101300A128A110C250A128A1172
:1009FE000C300A128A110C250A128A1106300A12BC
:100A0E008A110C250A128A110800F200F0307205C4
:100A1E00F0008312031308080F39700488000810C1
:100A2E00881400008312031388100330F1009730EE
:100A3E00F000F00B202DF10B202D252D7208F0006B
:100A4E0004300310F00DFF3E031D282D83120313F7
:100A5E0008080F39700488008814000083120313ED
:100A6E0088100830F100C930F000F00B3C2DF10B6E
:100A7E003C2D412D0800F200F0307205F00083127B
:100A8E00031308080F397004880008148814000036
:100A9E008312031388100330F1009730F000F00B2F
:100AAE00562DF10B562D5B2D7208F00004300310FD
:100ABE00F00DFF3E031D5E2D8312031308080F3940
:100ACE007004880088140000831203138810083005
:100ADE00F100C930F000F00B722DF10B722D772D55
:100AEE000800F301F4010430831203138900063069
:100AFE00F2001330F100AD30F000F00B842DF10B4D
:100B0E00842DF20B842D8B2D831203138901063055
:100B1E00F2001330F100AD30F000F00B942DF10B1C
:100B2E00942DF20B942D9B2D0130F3070318F40A2C
:100B3E000030F4077408803AFF0080307F02031DF6
:100B4E00AA2D05307302031CAD2DAE2D7A2D831206
:100B5E000313A501A50A0800F500E82D7508840009
:100B6E00831300080319BC2DBD2DCD2D70088400F4
:100B7E000A128A110D200A128A11F30075088400D8
:100B8E00000873060319CC2DCD2DE02D70088400BE
:100B9E000A128A110D200A128A11F30075088400B8
:100BAE000008F40073087402F000F101031CF10355
:100BBE00F82D0130FF007F08F5070130FF007F0898
:100BCE00F0070130F1020030031CF203F202710A49
:100BDE00031DF52D720A031DF52DF62DB52DF00111
:100BEE00F10108007130831603138F0089010A1278
:100BFE008A11E2240A128A110A128A114F240A1249
:100C0E008A110730831603138700003083120313F3
:100C1E0087180130A200003007180130A100003003
:100C2E0007190130A000A501831203132508031D27
:100C3E00212E222E282E0A128A114A260A128A11D3
:100C4E001B2E2503031D2C2E2D2E2E2E1B2E023079
:100C5E002506031D332E342E3A2E0A128A117324C2
:100C6E000A128A111B2E03302506031D3F2E402E1D
:100C7E00462E0A128A1178250A128A111B2E1B2E55
:100C8E000A128A1100280A128A112F240A128A11B6
:100C9E00F5011B30F6008030F70000300A128A1181
:100CAE00BC240A128A11C0300A128A110C250A12AB
:100CBE008A110A128A1105270A128A11FD007D086F
:100CCE0003196A2E6B2E7D2E2A300A128A114225A6
:100CDE000A128A11831203132408373E84007D08FA
:100CEE00831380000130FF007F08A4070230FC0050
:100CFE000430FB00BA30FA00FA0B832EFB0B832E66
:100D0E00FC0B832E00000430831203132402031CF9
:100D1E00912E922E602E0130F0000430F100003042
:100D2E00F20037300A128A11B3250A128A1170089E
:100D3E007104031DA32EA42ECB2E0A128A112F246A
:100D4E000A128A11F5013D30F6008030F7000030AE
:100D5E000A128A11BC240A128A110230831203135A
:100D6E0089001530FC004B30FB00BE30FA00FA0B48
:100D7E00BE2EFB0BBE2EFC0BBE2E000083120313E9
:100D8E00A501A50AA401042F033083120313230225
:100D9E000318D22ED32EFB2E0A128A112F240A12DA
:100DAE008A11F5012B30F6008030F70000300A1260
:100DBE008A11BC240A128A1101308312031389008E
:100DCE001530FC004B30FB00BE30FA00FA0BED2E56
:100DDE00FB0BED2EFC0BED2E00000130FF007F080B
:100DEE0083120313A307C92E03302306031D002FFE
:100DFE00012F042FA4010230A50008003C3084000E
:100E0E004F30F0000408F1001030F200700884003A
:100E1E0083130008F300F00A710884007308800041
:100E2E00F10AF20B0D2F83120313CC01CD01CE016B
:100E3E00831203134D084E04031D262F272F4C2F0C
:100E4E00FE3086004230F000F00B2B2F0000312FC9
:100E5E003C08CC0083120313061E362F372F2F2F7C
:100E6E003A2F3D08CC00861E3D2F3E2F382F412FA6
:100E7E003E08CC00061F442F452F3F2F482F3F081A
:100E8E00CC00861F4B2F4C2F462F4D034E04031DB7
:100E9E00512F522F772FFD3086004230F000F00B8D
:100EAE00562F00005C2F4008CC0083120313061E41
:100EBE00612F622F5A2F652F4108CC00861E682F96
:100ECE00692F632F6C2F4208CC00061F6F2F702FD7
:100EDE006A2F732F4308CC00861F762F772F712F22
:100EEE0002304D064E04031D7D2F7E2FA32FFB30A7
:100EFE0086004230F000F00B822F0000882F44084D
:100F0E00CC0083120313061E8D2F8E2F862F912F4A
:100F1E004508CC00861E942F952F8F2F982F4608AC
:100F2E00CC00061F9B2F9C2F962F9F2F4708CC007F
:100F3E00861FA22FA32F9D2F03304D064E04031D97
:100F4E00A92FAA2FCF2FF73086004230F000F00BDA
:100F5E00AE2F0000B42F4808CC0083120313061ED8
:100F6E00B92FBA2FB22FBD2F4908CC00861EC02F25
:100F7E00C12FBB2FC42F4A08CC00061FC72FC82F66
:100F8E00C22FCB2F4B08CC00861FCE2FCF2FC92FB1
:100F9E000130CD070318CE0A0030CE074E08803A36
:100FAE00FF0080307F02031DDE2F04304D02031C34
:100FBE00E12FE22F1F2F831203134C080800831317
:100FCE005F30FD000430FE003F30FF004F308400E4
:100FDE000A128A1164240A128A11203084003C30CD
:100FEE000A128A1127240A128A1183010A128A11FF
:020FFE00F92DCB
:04400E00D520FF3F7B
:00000001FF
